{
  "contractName": "TestNFT",
  "abi": [
    {
      "inputs": [
        {
          "internalType": "uint256",
          "name": "_initialPrice",
          "type": "uint256"
        }
      ],
      "stateMutability": "nonpayable",
      "type": "constructor"
    },
    {
      "anonymous": false,
      "inputs": [
        {
          "indexed": true,
          "internalType": "address",
          "name": "owner",
          "type": "address"
        },
        {
          "indexed": true,
          "internalType": "address",
          "name": "approved",
          "type": "address"
        },
        {
          "indexed": true,
          "internalType": "uint256",
          "name": "tokenId",
          "type": "uint256"
        }
      ],
      "name": "Approval",
      "type": "event"
    },
    {
      "anonymous": false,
      "inputs": [
        {
          "indexed": true,
          "internalType": "address",
          "name": "owner",
          "type": "address"
        },
        {
          "indexed": true,
          "internalType": "address",
          "name": "operator",
          "type": "address"
        },
        {
          "indexed": false,
          "internalType": "bool",
          "name": "approved",
          "type": "bool"
        }
      ],
      "name": "ApprovalForAll",
      "type": "event"
    },
    {
      "anonymous": false,
      "inputs": [
        {
          "indexed": true,
          "internalType": "address",
          "name": "from",
          "type": "address"
        },
        {
          "indexed": true,
          "internalType": "address",
          "name": "to",
          "type": "address"
        },
        {
          "indexed": true,
          "internalType": "uint256",
          "name": "tokenId",
          "type": "uint256"
        }
      ],
      "name": "Transfer",
      "type": "event"
    },
    {
      "inputs": [],
      "name": "_maxTokensPerTime",
      "outputs": [
        {
          "internalType": "uint8",
          "name": "",
          "type": "uint8"
        }
      ],
      "stateMutability": "view",
      "type": "function"
    },
    {
      "inputs": [
        {
          "internalType": "address",
          "name": "to",
          "type": "address"
        },
        {
          "internalType": "uint256",
          "name": "tokenId",
          "type": "uint256"
        }
      ],
      "name": "approve",
      "outputs": [],
      "stateMutability": "nonpayable",
      "type": "function"
    },
    {
      "inputs": [
        {
          "internalType": "address",
          "name": "owner",
          "type": "address"
        }
      ],
      "name": "balanceOf",
      "outputs": [
        {
          "internalType": "uint256",
          "name": "",
          "type": "uint256"
        }
      ],
      "stateMutability": "view",
      "type": "function"
    },
    {
      "inputs": [
        {
          "internalType": "uint256",
          "name": "tokenId",
          "type": "uint256"
        }
      ],
      "name": "getApproved",
      "outputs": [
        {
          "internalType": "address",
          "name": "",
          "type": "address"
        }
      ],
      "stateMutability": "view",
      "type": "function"
    },
    {
      "inputs": [
        {
          "internalType": "address",
          "name": "owner",
          "type": "address"
        },
        {
          "internalType": "address",
          "name": "operator",
          "type": "address"
        }
      ],
      "name": "isApprovedForAll",
      "outputs": [
        {
          "internalType": "bool",
          "name": "",
          "type": "bool"
        }
      ],
      "stateMutability": "view",
      "type": "function"
    },
    {
      "inputs": [],
      "name": "name",
      "outputs": [
        {
          "internalType": "string",
          "name": "",
          "type": "string"
        }
      ],
      "stateMutability": "view",
      "type": "function"
    },
    {
      "inputs": [],
      "name": "owner",
      "outputs": [
        {
          "internalType": "address",
          "name": "",
          "type": "address"
        }
      ],
      "stateMutability": "view",
      "type": "function"
    },
    {
      "inputs": [
        {
          "internalType": "uint256",
          "name": "tokenId",
          "type": "uint256"
        }
      ],
      "name": "ownerOf",
      "outputs": [
        {
          "internalType": "address",
          "name": "",
          "type": "address"
        }
      ],
      "stateMutability": "view",
      "type": "function"
    },
    {
      "inputs": [
        {
          "internalType": "address",
          "name": "from",
          "type": "address"
        },
        {
          "internalType": "address",
          "name": "to",
          "type": "address"
        },
        {
          "internalType": "uint256",
          "name": "tokenId",
          "type": "uint256"
        }
      ],
      "name": "safeTransferFrom",
      "outputs": [],
      "stateMutability": "nonpayable",
      "type": "function"
    },
    {
      "inputs": [
        {
          "internalType": "address",
          "name": "from",
          "type": "address"
        },
        {
          "internalType": "address",
          "name": "to",
          "type": "address"
        },
        {
          "internalType": "uint256",
          "name": "tokenId",
          "type": "uint256"
        },
        {
          "internalType": "bytes",
          "name": "_data",
          "type": "bytes"
        }
      ],
      "name": "safeTransferFrom",
      "outputs": [],
      "stateMutability": "nonpayable",
      "type": "function"
    },
    {
      "inputs": [
        {
          "internalType": "address",
          "name": "operator",
          "type": "address"
        },
        {
          "internalType": "bool",
          "name": "approved",
          "type": "bool"
        }
      ],
      "name": "setApprovalForAll",
      "outputs": [],
      "stateMutability": "nonpayable",
      "type": "function"
    },
    {
      "inputs": [
        {
          "internalType": "bytes4",
          "name": "interfaceId",
          "type": "bytes4"
        }
      ],
      "name": "supportsInterface",
      "outputs": [
        {
          "internalType": "bool",
          "name": "",
          "type": "bool"
        }
      ],
      "stateMutability": "view",
      "type": "function"
    },
    {
      "inputs": [],
      "name": "symbol",
      "outputs": [
        {
          "internalType": "string",
          "name": "",
          "type": "string"
        }
      ],
      "stateMutability": "view",
      "type": "function"
    },
    {
      "inputs": [],
      "name": "tokenPrice",
      "outputs": [
        {
          "internalType": "uint256",
          "name": "",
          "type": "uint256"
        }
      ],
      "stateMutability": "view",
      "type": "function"
    },
    {
      "inputs": [
        {
          "internalType": "uint256",
          "name": "tokenId",
          "type": "uint256"
        }
      ],
      "name": "tokenURI",
      "outputs": [
        {
          "internalType": "string",
          "name": "",
          "type": "string"
        }
      ],
      "stateMutability": "view",
      "type": "function"
    },
    {
      "inputs": [],
      "name": "totalSupply",
      "outputs": [
        {
          "internalType": "uint16",
          "name": "",
          "type": "uint16"
        }
      ],
      "stateMutability": "view",
      "type": "function"
    },
    {
      "inputs": [
        {
          "internalType": "address",
          "name": "from",
          "type": "address"
        },
        {
          "internalType": "address",
          "name": "to",
          "type": "address"
        },
        {
          "internalType": "uint256",
          "name": "tokenId",
          "type": "uint256"
        }
      ],
      "name": "transferFrom",
      "outputs": [],
      "stateMutability": "nonpayable",
      "type": "function"
    },
    {
      "inputs": [],
      "name": "getLastTokenId",
      "outputs": [
        {
          "internalType": "uint256",
          "name": "",
          "type": "uint256"
        }
      ],
      "stateMutability": "view",
      "type": "function"
    },
    {
      "inputs": [],
      "name": "buyToken",
      "outputs": [],
      "stateMutability": "payable",
      "type": "function"
    },
    {
      "inputs": [],
      "name": "buyUpTo20Tokens",
      "outputs": [],
      "stateMutability": "payable",
      "type": "function"
    },
    {
      "inputs": [
        {
          "internalType": "uint256",
          "name": "priceInWei",
          "type": "uint256"
        }
      ],
      "name": "changeTokenPrice",
      "outputs": [],
      "stateMutability": "nonpayable",
      "type": "function"
    }
  ],
  "bytecode": "0x60806040526014600960006101000a81548160ff021916908360ff1602179055506103e8600960016101000a81548161ffff021916908361ffff1602179055503480156200004c57600080fd5b506040516200314638038062003146833981810160405281019062000072919062000228565b6040518060400160405280600881526020017f54657374204e46540000000000000000000000000000000000000000000000008152506040518060400160405280600481526020017f544e4654000000000000000000000000000000000000000000000000000000008152508160009080519060200190620000f692919062000161565b5080600190805190602001906200010f92919062000161565b50505033600760006101000a81548173ffffffffffffffffffffffffffffffffffffffff021916908373ffffffffffffffffffffffffffffffffffffffff1602179055508060088190555050620002e8565b8280546200016f9062000264565b90600052602060002090601f016020900481019282620001935760008555620001df565b82601f10620001ae57805160ff1916838001178555620001df565b82800160010185558215620001df579182015b82811115620001de578251825591602001919060010190620001c1565b5b509050620001ee9190620001f2565b5090565b5b808211156200020d576000816000905550600101620001f3565b5090565b6000815190506200022281620002ce565b92915050565b600060208284031215620002415762000240620002c9565b5b6000620002518482850162000211565b91505092915050565b6000819050919050565b600060028204905060018216806200027d57607f821691505b602082108114156200029457620002936200029a565b5b50919050565b7f4e487b7100000000000000000000000000000000000000000000000000000000600052602260045260246000fd5b600080fd5b620002d9816200025a565b8114620002e557600080fd5b50565b612e4e80620002f86000396000f3fe60806040526004361061012a5760003560e01c80637ff9b596116100ab578063a48217191161006f578063a4821719146103d3578063b558e901146103dd578063b88d4fde14610408578063c87b56dd14610431578063e985e9c51461046e578063fbc94f24146104ab5761012a565b80637ff9b596146102fe57806383c4c00d146103295780638da5cb5b1461035457806395d89b411461037f578063a22cb465146103aa5761012a565b806323b872dd116100f257806323b872dd1461022857806324a87edb1461025157806342842e0e1461025b5780636352211e1461028457806370a08231146102c15761012a565b806301ffc9a71461012f57806306fdde031461016c578063081812fc14610197578063095ea7b3146101d457806318160ddd146101fd575b600080fd5b34801561013b57600080fd5b5061015660048036038101906101519190611dce565b6104d4565b6040516101639190612221565b60405180910390f35b34801561017857600080fd5b506101816105b6565b60405161018e919061223c565b60405180910390f35b3480156101a357600080fd5b506101be60048036038101906101b99190611e28565b610648565b6040516101cb91906121ba565b60405180910390f35b3480156101e057600080fd5b506101fb60048036038101906101f69190611d8e565b6106cd565b005b34801561020957600080fd5b506102126107e5565b60405161021f919061247e565b60405180910390f35b34801561023457600080fd5b5061024f600480360381019061024a9190611c78565b6107f9565b005b610259610859565b005b34801561026757600080fd5b50610282600480360381019061027d9190611c78565b6109b6565b005b34801561029057600080fd5b506102ab60048036038101906102a69190611e28565b6109d6565b6040516102b891906121ba565b60405180910390f35b3480156102cd57600080fd5b506102e860048036038101906102e39190611c0b565b610a88565b6040516102f59190612499565b60405180910390f35b34801561030a57600080fd5b50610313610b40565b6040516103209190612499565b60405180910390f35b34801561033557600080fd5b5061033e610b46565b60405161034b9190612499565b60405180910390f35b34801561036057600080fd5b50610369610b63565b60405161037691906121ba565b60405180910390f35b34801561038b57600080fd5b50610394610b89565b6040516103a1919061223c565b60405180910390f35b3480156103b657600080fd5b506103d160048036038101906103cc9190611d4e565b610c1b565b005b6103db610d9c565b005b3480156103e957600080fd5b506103f2610e5f565b6040516103ff91906124b4565b60405180910390f35b34801561041457600080fd5b5061042f600480360381019061042a9190611ccb565b610e72565b005b34801561043d57600080fd5b5061045860048036038101906104539190611e28565b610ed4565b604051610465919061223c565b60405180910390f35b34801561047a57600080fd5b5061049560048036038101906104909190611c38565b610f7b565b6040516104a29190612221565b60405180910390f35b3480156104b757600080fd5b506104d260048036038101906104cd9190611e28565b61100f565b005b60007f80ac58cd000000000000000000000000000000000000000000000000000000007bffffffffffffffffffffffffffffffffffffffffffffffffffffffff1916827bffffffffffffffffffffffffffffffffffffffffffffffffffffffff1916148061059f57507f5b5e139f000000000000000000000000000000000000000000000000000000007bffffffffffffffffffffffffffffffffffffffffffffffffffffffff1916827bffffffffffffffffffffffffffffffffffffffffffffffffffffffff1916145b806105af57506105ae82611073565b5b9050919050565b6060600080546105c59061274e565b80601f01602080910402602001604051908101604052809291908181526020018280546105f19061274e565b801561063e5780601f106106135761010080835404028352916020019161063e565b820191906000526020600020905b81548152906001019060200180831161062157829003601f168201915b5050505050905090565b6000610653826110dd565b610692576040517f08c379a0000000000000000000000000000000000000000000000000000000008152600401610689906123be565b60405180910390fd5b6004600083815260200190815260200160002060009054906101000a900473ffffffffffffffffffffffffffffffffffffffff169050919050565b60006106d8826109d6565b90508073ffffffffffffffffffffffffffffffffffffffff168373ffffffffffffffffffffffffffffffffffffffff161415610749576040517f08c379a00000000000000000000000000000000000000000000000000000000081526004016107409061243e565b60405180910390fd5b8073ffffffffffffffffffffffffffffffffffffffff16610768611149565b73ffffffffffffffffffffffffffffffffffffffff161480610797575061079681610791611149565b610f7b565b5b6107d6576040517f08c379a00000000000000000000000000000000000000000000000000000000081526004016107cd9061233e565b60405180910390fd5b6107e08383611151565b505050565b600960019054906101000a900461ffff1681565b61080a610804611149565b8261120a565b610849576040517f08c379a00000000000000000000000000000000000000000000000000000000081526004016108409061245e565b60405180910390fd5b6108548383836112e8565b505050565b600960019054906101000a900461ffff1661ffff166108786006611544565b106108b8576040517f08c379a00000000000000000000000000000000000000000000000000000000081526004016108af9061241e565b60405180910390fd5b6000349050600854811015610902576040517f08c379a00000000000000000000000000000000000000000000000000000000081526004016108f99061227e565b60405180910390fd5b600854600960009054906101000a900460ff1660ff1661092291906125ef565b811115610964576040517f08c379a000000000000000000000000000000000000000000000000000000000815260040161095b906122be565b60405180910390fd5b60006008548261097491906125be565b905060005b818110156109b1576109943361098f6006611544565b611552565b61099e6006611570565b80806109a9906127b1565b915050610979565b505050565b6109d183838360405180602001604052806000815250610e72565b505050565b6000806002600084815260200190815260200160002060009054906101000a900473ffffffffffffffffffffffffffffffffffffffff169050600073ffffffffffffffffffffffffffffffffffffffff168173ffffffffffffffffffffffffffffffffffffffff161415610a7f576040517f08c379a0000000000000000000000000000000000000000000000000000000008152600401610a769061237e565b60405180910390fd5b80915050919050565b60008073ffffffffffffffffffffffffffffffffffffffff168273ffffffffffffffffffffffffffffffffffffffff161415610af9576040517f08c379a0000000000000000000000000000000000000000000000000000000008152600401610af09061235e565b60405180910390fd5b600360008373ffffffffffffffffffffffffffffffffffffffff1673ffffffffffffffffffffffffffffffffffffffff168152602001908152602001600020549050919050565b60085481565b60006001610b546006611544565b610b5e9190612649565b905090565b600760009054906101000a900473ffffffffffffffffffffffffffffffffffffffff1681565b606060018054610b989061274e565b80601f0160208091040260200160405190810160405280929190818152602001828054610bc49061274e565b8015610c115780601f10610be657610100808354040283529160200191610c11565b820191906000526020600020905b815481529060010190602001808311610bf457829003601f168201915b5050505050905090565b610c23611149565b73ffffffffffffffffffffffffffffffffffffffff168273ffffffffffffffffffffffffffffffffffffffff161415610c91576040517f08c379a0000000000000000000000000000000000000000000000000000000008152600401610c88906122fe565b60405180910390fd5b8060056000610c9e611149565b73ffffffffffffffffffffffffffffffffffffffff1673ffffffffffffffffffffffffffffffffffffffff16815260200190815260200160002060008473ffffffffffffffffffffffffffffffffffffffff1673ffffffffffffffffffffffffffffffffffffffff16815260200190815260200160002060006101000a81548160ff0219169083151502179055508173ffffffffffffffffffffffffffffffffffffffff16610d4b611149565b73ffffffffffffffffffffffffffffffffffffffff167f17307eab39ab6107e8899845ad3d59bd9653f200f220920489ca2b5937696c3183604051610d909190612221565b60405180910390a35050565b600960019054906101000a900461ffff1661ffff16610dbb6006611544565b10610dfb576040517f08c379a0000000000000000000000000000000000000000000000000000000008152600401610df29061241e565b60405180910390fd5b600854341015610e40576040517f08c379a0000000000000000000000000000000000000000000000000000000008152600401610e379061227e565b60405180910390fd5b610e5333610e4e6006611544565b611552565b610e5d6006611570565b565b600960009054906101000a900460ff1681565b610e83610e7d611149565b8361120a565b610ec2576040517f08c379a0000000000000000000000000000000000000000000000000000000008152600401610eb99061245e565b60405180910390fd5b610ece84848484611586565b50505050565b6060610edf826110dd565b610f1e576040517f08c379a0000000000000000000000000000000000000000000000000000000008152600401610f15906123fe565b60405180910390fd5b6000610f286115e2565b90506000815111610f485760405180602001604052806000815250610f73565b80610f52846115f9565b604051602001610f63929190612196565b6040516020818303038152906040525b915050919050565b6000600560008473ffffffffffffffffffffffffffffffffffffffff1673ffffffffffffffffffffffffffffffffffffffff16815260200190815260200160002060008373ffffffffffffffffffffffffffffffffffffffff1673ffffffffffffffffffffffffffffffffffffffff16815260200190815260200160002060009054906101000a900460ff16905092915050565b600760009054906101000a900473ffffffffffffffffffffffffffffffffffffffff1673ffffffffffffffffffffffffffffffffffffffff163373ffffffffffffffffffffffffffffffffffffffff161461106957600080fd5b8060088190555050565b60007f01ffc9a7000000000000000000000000000000000000000000000000000000007bffffffffffffffffffffffffffffffffffffffffffffffffffffffff1916827bffffffffffffffffffffffffffffffffffffffffffffffffffffffff1916149050919050565b60008073ffffffffffffffffffffffffffffffffffffffff166002600084815260200190815260200160002060009054906101000a900473ffffffffffffffffffffffffffffffffffffffff1673ffffffffffffffffffffffffffffffffffffffff1614159050919050565b600033905090565b816004600083815260200190815260200160002060006101000a81548173ffffffffffffffffffffffffffffffffffffffff021916908373ffffffffffffffffffffffffffffffffffffffff160217905550808273ffffffffffffffffffffffffffffffffffffffff166111c4836109d6565b73ffffffffffffffffffffffffffffffffffffffff167f8c5be1e5ebec7d5bd14f71427d1e84f3dd0314c0f7b2291e5b200ac8c7c3b92560405160405180910390a45050565b6000611215826110dd565b611254576040517f08c379a000000000000000000000000000000000000000000000000000000000815260040161124b9061231e565b60405180910390fd5b600061125f836109d6565b90508073ffffffffffffffffffffffffffffffffffffffff168473ffffffffffffffffffffffffffffffffffffffff1614806112ce57508373ffffffffffffffffffffffffffffffffffffffff166112b684610648565b73ffffffffffffffffffffffffffffffffffffffff16145b806112df57506112de8185610f7b565b5b91505092915050565b8273ffffffffffffffffffffffffffffffffffffffff16611308826109d6565b73ffffffffffffffffffffffffffffffffffffffff161461135e576040517f08c379a0000000000000000000000000000000000000000000000000000000008152600401611355906123de565b60405180910390fd5b600073ffffffffffffffffffffffffffffffffffffffff168273ffffffffffffffffffffffffffffffffffffffff1614156113ce576040517f08c379a00000000000000000000000000000000000000000000000000000000081526004016113c5906122de565b60405180910390fd5b6113d983838361175a565b6113e4600082611151565b6001600360008573ffffffffffffffffffffffffffffffffffffffff1673ffffffffffffffffffffffffffffffffffffffff16815260200190815260200160002060008282546114349190612649565b925050819055506001600360008473ffffffffffffffffffffffffffffffffffffffff1673ffffffffffffffffffffffffffffffffffffffff168152602001908152602001600020600082825461148b9190612568565b92505081905550816002600083815260200190815260200160002060006101000a81548173ffffffffffffffffffffffffffffffffffffffff021916908373ffffffffffffffffffffffffffffffffffffffff160217905550808273ffffffffffffffffffffffffffffffffffffffff168473ffffffffffffffffffffffffffffffffffffffff167fddf252ad1be2c89b69c2b068fc378daa952ba7f163c4a11628f55a4df523b3ef60405160405180910390a4505050565b600081600001549050919050565b61156c82826040518060200160405280600081525061175f565b5050565b6001816000016000828254019250508190555050565b6115918484846112e8565b61159d848484846117ba565b6115dc576040517f08c379a00000000000000000000000000000000000000000000000000000000081526004016115d39061225e565b60405180910390fd5b50505050565b606060405180602001604052806000815250905090565b60606000821415611641576040518060400160405280600181526020017f30000000000000000000000000000000000000000000000000000000000000008152509050611755565b600082905060005b6000821461167357808061165c906127b1565b915050600a8261166c91906125be565b9150611649565b60008167ffffffffffffffff81111561168f5761168e6128e7565b5b6040519080825280601f01601f1916602001820160405280156116c15781602001600182028036833780820191505090505b5090505b6000851461174e576001826116da9190612649565b9150600a856116e991906127fa565b60306116f59190612568565b60f81b81838151811061170b5761170a6128b8565b5b60200101907effffffffffffffffffffffffffffffffffffffffffffffffffffffffffffff1916908160001a905350600a8561174791906125be565b94506116c5565b8093505050505b919050565b505050565b6117698383611951565b61177660008484846117ba565b6117b5576040517f08c379a00000000000000000000000000000000000000000000000000000000081526004016117ac9061225e565b60405180910390fd5b505050565b60006117db8473ffffffffffffffffffffffffffffffffffffffff16611b1f565b15611944578373ffffffffffffffffffffffffffffffffffffffff1663150b7a02611804611149565b8786866040518563ffffffff1660e01b815260040161182694939291906121d5565b602060405180830381600087803b15801561184057600080fd5b505af192505050801561187157506040513d601f19601f8201168201806040525081019061186e9190611dfb565b60015b6118f4573d80600081146118a1576040519150601f19603f3d011682016040523d82523d6000602084013e6118a6565b606091505b506000815114156118ec576040517f08c379a00000000000000000000000000000000000000000000000000000000081526004016118e39061225e565b60405180910390fd5b805181602001fd5b63150b7a0260e01b7bffffffffffffffffffffffffffffffffffffffffffffffffffffffff1916817bffffffffffffffffffffffffffffffffffffffffffffffffffffffff191614915050611949565b600190505b949350505050565b600073ffffffffffffffffffffffffffffffffffffffff168273ffffffffffffffffffffffffffffffffffffffff1614156119c1576040517f08c379a00000000000000000000000000000000000000000000000000000000081526004016119b89061239e565b60405180910390fd5b6119ca816110dd565b15611a0a576040517f08c379a0000000000000000000000000000000000000000000000000000000008152600401611a019061229e565b60405180910390fd5b611a166000838361175a565b6001600360008473ffffffffffffffffffffffffffffffffffffffff1673ffffffffffffffffffffffffffffffffffffffff1681526020019081526020016000206000828254611a669190612568565b92505081905550816002600083815260200190815260200160002060006101000a81548173ffffffffffffffffffffffffffffffffffffffff021916908373ffffffffffffffffffffffffffffffffffffffff160217905550808273ffffffffffffffffffffffffffffffffffffffff16600073ffffffffffffffffffffffffffffffffffffffff167fddf252ad1be2c89b69c2b068fc378daa952ba7f163c4a11628f55a4df523b3ef60405160405180910390a45050565b600080823b905060008111915050919050565b6000611b45611b40846124f4565b6124cf565b905082815260208101848484011115611b6157611b6061291b565b5b611b6c84828561270c565b509392505050565b600081359050611b8381612dbc565b92915050565b600081359050611b9881612dd3565b92915050565b600081359050611bad81612dea565b92915050565b600081519050611bc281612dea565b92915050565b600082601f830112611bdd57611bdc612916565b5b8135611bed848260208601611b32565b91505092915050565b600081359050611c0581612e01565b92915050565b600060208284031215611c2157611c20612925565b5b6000611c2f84828501611b74565b91505092915050565b60008060408385031215611c4f57611c4e612925565b5b6000611c5d85828601611b74565b9250506020611c6e85828601611b74565b9150509250929050565b600080600060608486031215611c9157611c90612925565b5b6000611c9f86828701611b74565b9350506020611cb086828701611b74565b9250506040611cc186828701611bf6565b9150509250925092565b60008060008060808587031215611ce557611ce4612925565b5b6000611cf387828801611b74565b9450506020611d0487828801611b74565b9350506040611d1587828801611bf6565b925050606085013567ffffffffffffffff811115611d3657611d35612920565b5b611d4287828801611bc8565b91505092959194509250565b60008060408385031215611d6557611d64612925565b5b6000611d7385828601611b74565b9250506020611d8485828601611b89565b9150509250929050565b60008060408385031215611da557611da4612925565b5b6000611db385828601611b74565b9250506020611dc485828601611bf6565b9150509250929050565b600060208284031215611de457611de3612925565b5b6000611df284828501611b9e565b91505092915050565b600060208284031215611e1157611e10612925565b5b6000611e1f84828501611bb3565b91505092915050565b600060208284031215611e3e57611e3d612925565b5b6000611e4c84828501611bf6565b91505092915050565b611e5e8161267d565b82525050565b611e6d8161268f565b82525050565b6000611e7e82612525565b611e88818561253b565b9350611e9881856020860161271b565b611ea18161292a565b840191505092915050565b6000611eb782612530565b611ec1818561254c565b9350611ed181856020860161271b565b611eda8161292a565b840191505092915050565b6000611ef082612530565b611efa818561255d565b9350611f0a81856020860161271b565b80840191505092915050565b6000611f2360328361254c565b9150611f2e8261293b565b604082019050919050565b6000611f4660108361254c565b9150611f518261298a565b602082019050919050565b6000611f69601c8361254c565b9150611f74826129b3565b602082019050919050565b6000611f8c60218361254c565b9150611f97826129dc565b604082019050919050565b6000611faf60248361254c565b9150611fba82612a2b565b604082019050919050565b6000611fd260198361254c565b9150611fdd82612a7a565b602082019050919050565b6000611ff5602c8361254c565b915061200082612aa3565b604082019050919050565b600061201860388361254c565b915061202382612af2565b604082019050919050565b600061203b602a8361254c565b915061204682612b41565b604082019050919050565b600061205e60298361254c565b915061206982612b90565b604082019050919050565b600061208160208361254c565b915061208c82612bdf565b602082019050919050565b60006120a4602c8361254c565b91506120af82612c08565b604082019050919050565b60006120c760298361254c565b91506120d282612c57565b604082019050919050565b60006120ea602f8361254c565b91506120f582612ca6565b604082019050919050565b600061210d60208361254c565b915061211882612cf5565b602082019050919050565b600061213060218361254c565b915061213b82612d1e565b604082019050919050565b600061215360318361254c565b915061215e82612d6d565b604082019050919050565b612172816126c7565b82525050565b612181816126f5565b82525050565b612190816126ff565b82525050565b60006121a28285611ee5565b91506121ae8284611ee5565b91508190509392505050565b60006020820190506121cf6000830184611e55565b92915050565b60006080820190506121ea6000830187611e55565b6121f76020830186611e55565b6122046040830185612178565b81810360608301526122168184611e73565b905095945050505050565b60006020820190506122366000830184611e64565b92915050565b600060208201905081810360008301526122568184611eac565b905092915050565b6000602082019050818103600083015261227781611f16565b9050919050565b6000602082019050818103600083015261229781611f39565b9050919050565b600060208201905081810360008301526122b781611f5c565b9050919050565b600060208201905081810360008301526122d781611f7f565b9050919050565b600060208201905081810360008301526122f781611fa2565b9050919050565b6000602082019050818103600083015261231781611fc5565b9050919050565b6000602082019050818103600083015261233781611fe8565b9050919050565b600060208201905081810360008301526123578161200b565b9050919050565b600060208201905081810360008301526123778161202e565b9050919050565b6000602082019050818103600083015261239781612051565b9050919050565b600060208201905081810360008301526123b781612074565b9050919050565b600060208201905081810360008301526123d781612097565b9050919050565b600060208201905081810360008301526123f7816120ba565b9050919050565b60006020820190508181036000830152612417816120dd565b9050919050565b6000602082019050818103600083015261243781612100565b9050919050565b6000602082019050818103600083015261245781612123565b9050919050565b6000602082019050818103600083015261247781612146565b9050919050565b60006020820190506124936000830184612169565b92915050565b60006020820190506124ae6000830184612178565b92915050565b60006020820190506124c96000830184612187565b92915050565b60006124d96124ea565b90506124e58282612780565b919050565b6000604051905090565b600067ffffffffffffffff82111561250f5761250e6128e7565b5b6125188261292a565b9050602081019050919050565b600081519050919050565b600081519050919050565b600082825260208201905092915050565b600082825260208201905092915050565b600081905092915050565b6000612573826126f5565b915061257e836126f5565b9250827fffffffffffffffffffffffffffffffffffffffffffffffffffffffffffffffff038211156125b3576125b261282b565b5b828201905092915050565b60006125c9826126f5565b91506125d4836126f5565b9250826125e4576125e361285a565b5b828204905092915050565b60006125fa826126f5565b9150612605836126f5565b9250817fffffffffffffffffffffffffffffffffffffffffffffffffffffffffffffffff048311821515161561263e5761263d61282b565b5b828202905092915050565b6000612654826126f5565b915061265f836126f5565b9250828210156126725761267161282b565b5b828203905092915050565b6000612688826126d5565b9050919050565b60008115159050919050565b60007fffffffff0000000000000000000000000000000000000000000000000000000082169050919050565b600061ffff82169050919050565b600073ffffffffffffffffffffffffffffffffffffffff82169050919050565b6000819050919050565b600060ff82169050919050565b82818337600083830152505050565b60005b8381101561273957808201518184015260208101905061271e565b83811115612748576000848401525b50505050565b6000600282049050600182168061276657607f821691505b6020821081141561277a57612779612889565b5b50919050565b6127898261292a565b810181811067ffffffffffffffff821117156127a8576127a76128e7565b5b80604052505050565b60006127bc826126f5565b91507fffffffffffffffffffffffffffffffffffffffffffffffffffffffffffffffff8214156127ef576127ee61282b565b5b600182019050919050565b6000612805826126f5565b9150612810836126f5565b9250826128205761281f61285a565b5b828206905092915050565b7f4e487b7100000000000000000000000000000000000000000000000000000000600052601160045260246000fd5b7f4e487b7100000000000000000000000000000000000000000000000000000000600052601260045260246000fd5b7f4e487b7100000000000000000000000000000000000000000000000000000000600052602260045260246000fd5b7f4e487b7100000000000000000000000000000000000000000000000000000000600052603260045260246000fd5b7f4e487b7100000000000000000000000000000000000000000000000000000000600052604160045260246000fd5b600080fd5b600080fd5b600080fd5b600080fd5b6000601f19601f8301169050919050565b7f4552433732313a207472616e7366657220746f206e6f6e20455243373231526560008201527f63656976657220696d706c656d656e7465720000000000000000000000000000602082015250565b7f696e73756666697369656e742045544800000000000000000000000000000000600082015250565b7f4552433732313a20746f6b656e20616c7265616479206d696e74656400000000600082015250565b7f72656163686564206d617820746f6b656e73207065722074696d65206c696d6960008201527f7400000000000000000000000000000000000000000000000000000000000000602082015250565b7f4552433732313a207472616e7366657220746f20746865207a65726f2061646460008201527f7265737300000000000000000000000000000000000000000000000000000000602082015250565b7f4552433732313a20617070726f766520746f2063616c6c657200000000000000600082015250565b7f4552433732313a206f70657261746f7220717565727920666f72206e6f6e657860008201527f697374656e7420746f6b656e0000000000000000000000000000000000000000602082015250565b7f4552433732313a20617070726f76652063616c6c6572206973206e6f74206f7760008201527f6e6572206e6f7220617070726f76656420666f7220616c6c0000000000000000602082015250565b7f4552433732313a2062616c616e636520717565727920666f7220746865207a6560008201527f726f206164647265737300000000000000000000000000000000000000000000602082015250565b7f4552433732313a206f776e657220717565727920666f72206e6f6e657869737460008201527f656e7420746f6b656e0000000000000000000000000000000000000000000000602082015250565b7f4552433732313a206d696e7420746f20746865207a65726f2061646472657373600082015250565b7f4552433732313a20617070726f76656420717565727920666f72206e6f6e657860008201527f697374656e7420746f6b656e0000000000000000000000000000000000000000602082015250565b7f4552433732313a207472616e73666572206f6620746f6b656e2074686174206960008201527f73206e6f74206f776e0000000000000000000000000000000000000000000000602082015250565b7f4552433732314d657461646174613a2055524920717565727920666f72206e6f60008201527f6e6578697374656e7420746f6b656e0000000000000000000000000000000000602082015250565b7f7265616368656420746f74616c20746f6b656e20737570706c79206c696d6974600082015250565b7f4552433732313a20617070726f76616c20746f2063757272656e74206f776e6560008201527f7200000000000000000000000000000000000000000000000000000000000000602082015250565b7f4552433732313a207472616e736665722063616c6c6572206973206e6f74206f60008201527f776e6572206e6f7220617070726f766564000000000000000000000000000000602082015250565b612dc58161267d565b8114612dd057600080fd5b50565b612ddc8161268f565b8114612de757600080fd5b50565b612df38161269b565b8114612dfe57600080fd5b50565b612e0a816126f5565b8114612e1557600080fd5b5056fea26469706673582212209a23054547466ef0691e1e1190894b4ed278f3b071ad38a4b267a3642aca18b764736f6c63430008060033",
  "immutableReferences": {},
  "source": "//SPDX-License-Identifier: Unlicense\r\npragma solidity ^0.8.0;\r\n\r\nimport \"@openzeppelin/contracts/token/ERC721/ERC721.sol\";\r\nimport \"@openzeppelin/contracts/utils/Counters.sol\";\r\n\r\ncontract TestNFT is ERC721('Test NFT', 'TNFT') {\r\n    \r\n    using Counters for Counters.Counter;\r\n    Counters.Counter private _tokenIdTracker;\r\n\r\n    address public owner;\r\n    uint public tokenPrice;\r\n    uint8 public _maxTokensPerTime = 20;\r\n    uint16 public totalSupply = 1000;\r\n\r\n    constructor(uint _initialPrice) {\r\n        owner = msg.sender;\r\n        tokenPrice = _initialPrice;\r\n    }\r\n\r\n    modifier onlyOwner() {\r\n        require(msg.sender == owner);\r\n        _;\r\n    }\r\n\r\n    modifier underTotalSuply() {\r\n        require(_tokenIdTracker.current() < totalSupply, 'reached total token supply limit');\r\n        _;\r\n    }\r\n\r\n    function getLastTokenId() public view returns(uint) {\r\n        return _tokenIdTracker.current() - 1;\r\n    }\r\n\r\n    function buyToken() public payable underTotalSuply {\r\n        require(msg.value >= tokenPrice, 'insuffisient ETH');\r\n        _safeMint(msg.sender, _tokenIdTracker.current());\r\n\r\n        _tokenIdTracker.increment();\r\n    }\r\n\r\n    function buyUpTo20Tokens() public payable underTotalSuply {\r\n        uint msgValue = msg.value;\r\n        require(msgValue >= tokenPrice, 'insuffisient ETH');\r\n        require(msgValue <= _maxTokensPerTime * tokenPrice, 'reached max tokens per time limit');\r\n\r\n        uint maxTokens = msgValue / tokenPrice;\r\n\r\n        for (uint i=0; i < maxTokens; i++) {\r\n            _safeMint(msg.sender, _tokenIdTracker.current());\r\n            _tokenIdTracker.increment();\r\n        }\r\n    }\r\n\r\n    function changeTokenPrice(uint priceInWei) public onlyOwner {\r\n        tokenPrice = priceInWei;\r\n    }\r\n}",
  "sourcePath": "C:\\Users\\odmen\\Documents\\repos\\testNFTtruffle\\contracts\\TestNFT.sol",
  "compiler": {
    "name": "solc",
    "version": "0.8.6+commit.11564f7e.Emscripten.clang"
  },
  "schemaVersion": "3.4.2",
  "updatedAt": "2021-07-30T12:45:47.553Z",
  "devdoc": {
    "kind": "dev",
    "methods": {
      "approve(address,uint256)": {
        "details": "See {IERC721-approve}."
      },
      "balanceOf(address)": {
        "details": "See {IERC721-balanceOf}."
      },
      "getApproved(uint256)": {
        "details": "See {IERC721-getApproved}."
      },
      "isApprovedForAll(address,address)": {
        "details": "See {IERC721-isApprovedForAll}."
      },
      "name()": {
        "details": "See {IERC721Metadata-name}."
      },
      "ownerOf(uint256)": {
        "details": "See {IERC721-ownerOf}."
      },
      "safeTransferFrom(address,address,uint256)": {
        "details": "See {IERC721-safeTransferFrom}."
      },
      "safeTransferFrom(address,address,uint256,bytes)": {
        "details": "See {IERC721-safeTransferFrom}."
      },
      "setApprovalForAll(address,bool)": {
        "details": "See {IERC721-setApprovalForAll}."
      },
      "supportsInterface(bytes4)": {
        "details": "See {IERC165-supportsInterface}."
      },
      "symbol()": {
        "details": "See {IERC721Metadata-symbol}."
      },
      "tokenURI(uint256)": {
        "details": "See {IERC721Metadata-tokenURI}."
      },
      "transferFrom(address,address,uint256)": {
        "details": "See {IERC721-transferFrom}."
      }
    },
    "version": 1
  },
  "userdoc": {
    "kind": "user",
    "methods": {},
    "version": 1
  }
}